{
  "contractName": "LifeLine",
  "abi": [
    {
      "inputs": [],
      "payable": false,
      "stateMutability": "nonpayable",
      "type": "constructor",
      "signature": "constructor"
    },
    {
      "anonymous": false,
      "inputs": [
        {
          "indexed": false,
          "name": "sender",
          "type": "address"
        },
        {
          "indexed": false,
          "name": "isSuccess",
          "type": "bool"
        },
        {
          "indexed": false,
          "name": "message",
          "type": "string"
        }
      ],
      "name": "NewUser",
      "type": "event",
      "signature": "0x66e3bfd6d91a619b795e0f1317d04d96f36670dad4290fbd309c8c7eb5f8e4ed"
    },
    {
      "anonymous": false,
      "inputs": [
        {
          "indexed": false,
          "name": "sender",
          "type": "address"
        },
        {
          "indexed": false,
          "name": "isSuccess",
          "type": "bool"
        },
        {
          "indexed": false,
          "name": "message",
          "type": "string"
        }
      ],
      "name": "ProduceGood",
      "type": "event",
      "signature": "0x28a360f6fd3034a00f24f447e5e984f48fe0f6aabbcc5bc189eb3995e98258b9"
    },
    {
      "anonymous": false,
      "inputs": [
        {
          "indexed": false,
          "name": "sender",
          "type": "address"
        },
        {
          "indexed": false,
          "name": "isSuccess",
          "type": "bool"
        },
        {
          "indexed": false,
          "name": "message",
          "type": "string"
        }
      ],
      "name": "SellGood",
      "type": "event",
      "signature": "0x6f1918ce2966b92d7f20c71ac69b7aecbc5ab3cbc1622fb2d19e7b1a8cf173d5"
    },
    {
      "anonymous": false,
      "inputs": [
        {
          "indexed": false,
          "name": "sender",
          "type": "address"
        },
        {
          "indexed": false,
          "name": "isSuccess",
          "type": "bool"
        },
        {
          "indexed": false,
          "name": "message",
          "type": "string"
        }
      ],
      "name": "QueryGood",
      "type": "event",
      "signature": "0x1cdaccc8c90913134fd8f74ceaac895a089b8c4a3c2da93bd2c569117319433d"
    },
    {
      "constant": false,
      "inputs": [
        {
          "name": "_userAddrStr",
          "type": "string"
        },
        {
          "name": "_password",
          "type": "string"
        },
        {
          "name": "_type",
          "type": "uint256"
        },
        {
          "name": "_name",
          "type": "string"
        },
        {
          "name": "_info",
          "type": "string"
        }
      ],
      "name": "newUser",
      "outputs": [],
      "payable": true,
      "stateMutability": "payable",
      "type": "function",
      "signature": "0x6992fc94"
    },
    {
      "constant": true,
      "inputs": [
        {
          "name": "_addrStr",
          "type": "string"
        },
        {
          "name": "_type",
          "type": "uint256"
        }
      ],
      "name": "getUserPwd",
      "outputs": [
        {
          "name": "",
          "type": "bool"
        },
        {
          "name": "",
          "type": "string"
        }
      ],
      "payable": false,
      "stateMutability": "view",
      "type": "function",
      "signature": "0x72c4bd68"
    },
    {
      "constant": false,
      "inputs": [
        {
          "name": "_id",
          "type": "string"
        },
        {
          "name": "_name",
          "type": "string"
        },
        {
          "name": "_src",
          "type": "string"
        },
        {
          "name": "_CompStr",
          "type": "string[]"
        },
        {
          "name": "_produceT",
          "type": "string"
        }
      ],
      "name": "produceGood",
      "outputs": [],
      "payable": false,
      "stateMutability": "nonpayable",
      "type": "function",
      "signature": "0x2119d42f"
    },
    {
      "constant": false,
      "inputs": [
        {
          "name": "_gid",
          "type": "string"
        },
        {
          "name": "_id",
          "type": "string"
        },
        {
          "name": "_brs",
          "type": "string"
        },
        {
          "name": "_time",
          "type": "string"
        },
        {
          "name": "_p",
          "type": "string"
        },
        {
          "name": "_t",
          "type": "uint256"
        },
        {
          "name": "_srs",
          "type": "string"
        },
        {
          "name": "_st",
          "type": "uint256"
        }
      ],
      "name": "sellGood",
      "outputs": [],
      "payable": true,
      "stateMutability": "payable",
      "type": "function",
      "signature": "0x5e6cb1b2"
    },
    {
      "constant": true,
      "inputs": [
        {
          "name": "_id",
          "type": "string"
        }
      ],
      "name": "debugGood",
      "outputs": [
        {
          "name": "",
          "type": "string"
        }
      ],
      "payable": false,
      "stateMutability": "view",
      "type": "function",
      "signature": "0x30a7ba49"
    },
    {
      "constant": false,
      "inputs": [
        {
          "name": "_id",
          "type": "string"
        }
      ],
      "name": "queryGood",
      "outputs": [],
      "payable": false,
      "stateMutability": "nonpayable",
      "type": "function",
      "signature": "0x9bc1bd63"
    },
    {
      "constant": true,
      "inputs": [
        {
          "name": "_addr",
          "type": "bytes32"
        },
        {
          "name": "_type",
          "type": "uint256"
        }
      ],
      "name": "queryUser",
      "outputs": [
        {
          "name": "",
          "type": "string"
        }
      ],
      "payable": false,
      "stateMutability": "view",
      "type": "function",
      "signature": "0x9053168e"
    },
    {
      "constant": true,
      "inputs": [
        {
          "name": "_id",
          "type": "bytes32"
        }
      ],
      "name": "querySale",
      "outputs": [
        {
          "name": "",
          "type": "string"
        },
        {
          "name": "",
          "type": "uint256"
        }
      ],
      "payable": false,
      "stateMutability": "view",
      "type": "function",
      "signature": "0x253eb790"
    }
  ],
  "bytecode": "0x608060405234801561001057600080fd5b50336000806101000a81548173ffffffffffffffffffffffffffffffffffffffff021916908373ffffffffffffffffffffffffffffffffffffffff1602179055506000600b819055506000600c81905550614fff806100706000396000f3fe60806040526004361061008e576000357c0100000000000000000000000000000000000000000000000000000000900463ffffffff1680632119d42f14610093578063253eb790146100bc57806330a7ba49146100fa5780635e6cb1b2146101375780636992fc941461015357806372c4bd681461016f5780639053168e146101ad5780639bc1bd63146101ea575b600080fd5b34801561009f57600080fd5b506100ba60048036036100b591908101906143dc565b610213565b005b3480156100c857600080fd5b506100e360048036036100de91908101906142cc565b610861565b6040516100f1929190614df5565b60405180910390f35b34801561010657600080fd5b50610121600480360361011c919081019061435a565b610ea2565b60405161012e9190614db1565b60405180910390f35b610151600480360361014c91908101906144cb565b611ad6565b005b61016d6004803603610168919081019061460d565b612268565b005b34801561017b57600080fd5b50610196600480360361019191908101906146e4565b612f74565b6040516101a4929190614d44565b60405180910390f35b3480156101b957600080fd5b506101d460048036036101cf919081019061431e565b6133a5565b6040516101e19190614db1565b60405180910390f35b3480156101f657600080fd5b50610211600480360361020c919081019061435a565b613c8a565b005b600073__ConvertLib____________________________63cfb51928876040518263ffffffff167c01000000000000000000000000000000000000000000000000000000000281526004016102689190614dd3565b60206040518083038186803b15801561028057600080fd5b505af4158015610294573d6000803e3d6000fd5b505050506040513d601f19601f820116820180604052506102b891908101906142f5565b9050606083516040519080825280602002602001820160405280156102ec5781602001602082028038833980820191505090505b50905060008090505b84518110156103e15773__ConvertLib____________________________63cfb51928868381518110151561032657fe5b906020019060200201516040518263ffffffff167c01000000000000000000000000000000000000000000000000000000000281526004016103689190614d8f565b60206040518083038186803b15801561038057600080fd5b505af4158015610394573d6000803e3d6000fd5b505050506040513d601f19601f820116820180604052506103b891908101906142f5565b82828151811015156103c657fe5b906020019060200201818152505080806001019150506102f5565b506103eb82613dce565b1515610816576000806103fd83613e26565b809250819350505081156107cc5783600a60008681526020019081526020016000206000018190555073__ConvertLib____________________________63cfb51928896040518263ffffffff167c01000000000000000000000000000000000000000000000000000000000281526004016104799190614dd3565b60206040518083038186803b15801561049157600080fd5b505af41580156104a5573d6000803e3d6000fd5b505050506040513d601f19601f820116820180604052506104c991908101906142f5565b600a6000868152602001908152602001600020600101819055506001600a60008681526020019081526020016000206006018190555073__ConvertLib____________________________63cfb51928886040518263ffffffff167c01000000000000000000000000000000000000000000000000000000000281526004016105529190614dd3565b60206040518083038186803b15801561056a57600080fd5b505af415801561057e573d6000803e3d6000fd5b505050506040513d601f19601f820116820180604052506105a291908101906142f5565b600a60008681526020019081526020016000206005018190555073__ConvertLib____________________________63cfb51928886040518263ffffffff167c010000000000000000000000000000000000000000000000000000000002815260040161060f9190614dd3565b60206040518083038186803b15801561062757600080fd5b505af415801561063b573d6000803e3d6000fd5b505050506040513d601f19601f8201168201806040525061065f91908101906142f5565b600a60008681526020019081526020016000206002018190555082600a600086815260200190815260200160002060070190805190602001906106a39291906140a6565b5073__ConvertLib____________________________63cfb51928866040518263ffffffff167c01000000000000000000000000000000000000000000000000000000000281526004016106f79190614dd3565b60206040518083038186803b15801561070f57600080fd5b505af4158015610723573d6000803e3d6000fd5b505050506040513d601f19601f8201168201806040525061074791908101906142f5565b600a600086815260200190815260200160002060030181905550600e8490806001815401808255809150509060018203906000526020600020016000909192909190915055507f28a360f6fd3034a00f24f447e5e984f48fe0f6aabbcc5bc189eb3995e98258b93360016040516107bf929190614b64565b60405180910390a161080f565b7f28a360f6fd3034a00f24f447e5e984f48fe0f6aabbcc5bc189eb3995e98258b93360006040516107fe929190614c18565b60405180910390a15050505061085a565b5050610857565b7f28a360f6fd3034a00f24f447e5e984f48fe0f6aabbcc5bc189eb3995e98258b9336000604051610848929190614aec565b60405180910390a1505061085a565b50505b5050505050565b60606000806060806060600080600960008a815260200190815260200160002060050160009054906101000a900460ff169050600960008a815260200190815260200160002060020154955073__ConvertLib____________________________639201de55600960008c8152602001908152602001600020600301546040518263ffffffff167c01000000000000000000000000000000000000000000000000000000000281526004016109169190614d74565b60006040518083038186803b15801561092e57600080fd5b505af4158015610942573d6000803e3d6000fd5b505050506040513d6000823e3d601f19601f8201168201806040525061096b919081019061439b565b945073__ConvertLib____________________________639201de55600960008c8152602001908152602001600020600401546040518263ffffffff167c01000000000000000000000000000000000000000000000000000000000281526004016109d69190614d74565b60006040518083038186803b1580156109ee57600080fd5b505af4158015610a02573d6000803e3d6000fd5b505050506040513d6000823e3d601f19601f82011682018060405250610a2b919081019061439b565b935060006003811115610a3a57fe5b816003811115610a4657fe5b1415610a8d576040805190810160405280600981526020017fe7bb8fe99480e595860000000000000000000000000000000000000000000000815250925060029150610bab565b60016003811115610a9a57fe5b816003811115610aa657fe5b1415610aed576040805190810160405280600981526020017fe99bb6e594aee595860000000000000000000000000000000000000000000000815250925060039150610baa565b60026003811115610afa57fe5b816003811115610b0657fe5b1415610b4d576040805190810160405280600981526020017fe6b688e8b4b9e880850000000000000000000000000000000000000000000000815250925060009150610ba9565b600380811115610b5957fe5b816003811115610b6557fe5b1415610ba8576040805190810160405280600981526020017fe7949fe4baa7e5958600000000000000000000000000000000000000000000008152509250600091505b5b5b5b606073__ConvertLib____________________________639201de55886040518263ffffffff167c0100000000000000000000000000000000000000000000000000000000028152600401610c009190614d74565b60006040518083038186803b158015610c1857600080fd5b505af4158015610c2c573d6000803e3d6000fd5b505050506040513d6000823e3d601f19601f82011682018060405250610c55919081019061439b565b905060608482888860405160200180807f7b27427579657254797065273a27000000000000000000000000000000000000815250600e0185805190602001908083835b602083101515610cbd5780518252602082019150602081019050602083039250610c98565b6001836020036101000a038019825116818451168082178552505050505050905001807f272c274275796572273a27000000000000000000000000000000000000000000815250600b0184805190602001908083835b602083101515610d385780518252602082019150602081019050602083039250610d13565b6001836020036101000a038019825116818451168082178552505050505050905001807f272c2754696d65273a2700000000000000000000000000000000000000000000815250600a0183805190602001908083835b602083101515610db35780518252602082019150602081019050602083039250610d8e565b6001836020036101000a038019825116818451168082178552505050505050905001807f272c275072696365273a27000000000000000000000000000000000000000000815250600b0182805190602001908083835b602083101515610e2e5780518252602082019150602081019050602083039250610e09565b6001836020036101000a038019825116818451168082178552505050505050905001807f277d00000000000000000000000000000000000000000000000000000000000081525060020194505050505060405160208183030381529060405290508084995099505050505050505050915091565b6060600073__ConvertLib____________________________63cfb51928846040518263ffffffff167c0100000000000000000000000000000000000000000000000000000000028152600401610ef99190614dd3565b60206040518083038186803b158015610f1157600080fd5b505af4158015610f25573d6000803e3d6000fd5b505050506040513d601f19601f82011682018060405250610f4991908101906142f5565b9050610f5481613dce565b15611a9757606073__ConvertLib____________________________639201de55600a6000858152602001908152602001600020600101546040518263ffffffff167c0100000000000000000000000000000000000000000000000000000000028152600401610fc49190614d74565b60006040518083038186803b158015610fdc57600080fd5b505af4158015610ff0573d6000803e3d6000fd5b505050506040513d6000823e3d601f19601f82011682018060405250611019919081019061439b565b9050606061103e600a60008581526020019081526020016000206002015460016133a5565b90506060600a60008581526020019081526020016000206004018054806020026020016040519081016040528092919081815260200182805480156110a257602002820191906000526020600020905b81548152602001906001019080831161108e575b505050505090506060600a600086815260200190815260200160002060070180548060200260200160405190810160405280929190818152602001828054801561110b57602002820191906000526020600020905b8154815260200190600101908083116110f7575b50505050509050606082516040519080825280602002602001820160405280156111445781602001602082028038833980820191505090505b5090506060835160405190808252806020026020018201604052801561117e57816020015b60608152602001906001900390816111695790505b509050606083516040519080825280602002602001820160405280156111b857816020015b60608152602001906001900390816111a35790505b50905060008090505b8551811015611231576111ea86828151811015156111db57fe5b90602001906020020151610861565b81915084838151811015156111fb57fe5b906020019060200201868481518110151561121257fe5b90602001906020020182815250829052505080806001019150506111c1565b5060008090505b84518110156113285773__ConvertLib____________________________639201de55868381518110151561126957fe5b906020019060200201516040518263ffffffff167c01000000000000000000000000000000000000000000000000000000000281526004016112ab9190614d74565b60006040518083038186803b1580156112c357600080fd5b505af41580156112d7573d6000803e3d6000fd5b505050506040513d6000823e3d601f19601f82011682018060405250611300919081019061439b565b828281518110151561130e57fe5b906020019060200201819052508080600101915050611238565b50606073__ConvertLib____________________________639201de55600a60008c8152602001908152602001600020600301546040518263ffffffff167c01000000000000000000000000000000000000000000000000000000000281526004016113949190614d74565b60006040518083038186803b1580156113ac57600080fd5b505af41580156113c0573d6000803e3d6000fd5b505050506040513d6000823e3d601f19601f820116820180604052506113e9919081019061439b565b905060608b89838a60405160200180807f7b274944273a270000000000000000000000000000000000000000000000000081525060070185805190602001908083835b602083101515611451578051825260208201915060208101905060208303925061142c565b6001836020036101000a038019825116818451168082178552505050505050905001807f272c274e616d65273a2700000000000000000000000000000000000000000000815250600a0184805190602001908083835b6020831015156114cc57805182526020820191506020810190506020830392506114a7565b6001836020036101000a038019825116818451168082178552505050505050905001807f272c2750726f6475636554696d65273a2700000000000000000000000000000081525060110183805190602001908083835b6020831015156115475780518252602082019150602081019050602083039250611522565b6001836020036101000a038019825116818451168082178552505050505050905001807f272c2750726f6475636572273a5b000000000000000000000000000000000000815250600e0182805190602001908083835b6020831015156115c2578051825260208201915060208101905060208303925061159d565b6001836020036101000a038019825116818451168082178552505050505050905001807f5d2c2753616c6573273a5b000000000000000000000000000000000000000000815250600b01945050505050604051602081830303815290604052905060008090505b87518110156117bc576000811415156116d457816040516020018082805190602001908083835b6020831015156116755780518252602082019150602081019050602083039250611650565b6001836020036101000a038019825116818451168082178552505050505050905001807f2c0000000000000000000000000000000000000000000000000000000000000081525060010191505060405160208183030381529060405291505b8185828151811015156116e357fe5b906020019060200201516040516020018083805190602001908083835b6020831015156117255780518252602082019150602081019050602083039250611700565b6001836020036101000a03801982511681845116808217855250505050505090500182805190602001908083835b6020831015156117785780518252602082019150602081019050602083039250611753565b6001836020036101000a0380198251168184511680821785525050505050509050019250505060405160208183030381529060405291508080600101915050611629565b50806040516020018082805190602001908083835b6020831015156117f657805182526020820191506020810190506020830392506117d1565b6001836020036101000a038019825116818451168082178552505050505050905001807f5d2c27436f6d70656e656e7473273a2700000000000000000000000000000000815250601001915050604051602081830303815290604052905060008090505b86518110156119ed5760008114151561190557816040516020018082805190602001908083835b6020831015156118a65780518252602082019150602081019050602083039250611881565b6001836020036101000a038019825116818451168082178552505050505050905001807f2f0000000000000000000000000000000000000000000000000000000000000081525060010191505060405160208183030381529060405291505b81848281518110151561191457fe5b906020019060200201516040516020018083805190602001908083835b6020831015156119565780518252602082019150602081019050602083039250611931565b6001836020036101000a03801982511681845116808217855250505050505090500182805190602001908083835b6020831015156119a95780518252602082019150602081019050602083039250611984565b6001836020036101000a038019825116818451168082178552505050505050905001925050506040516020818303038152906040529150808060010191505061185a565b50806040516020018082805190602001908083835b602083101515611a275780518252602082019150602081019050602083039250611a02565b6001836020036101000a038019825116818451168082178552505050505050905001807f277d0000000000000000000000000000000000000000000000000000000000008152506002019150506040516020818303038152906040529050809a5050505050505050505050611ad1565b6040805190810160405280600181526020017f20000000000000000000000000000000000000000000000000000000000000008152509150505b919050565b600073__ConvertLib____________________________63cfb51928896040518263ffffffff167c0100000000000000000000000000000000000000000000000000000000028152600401611b2b9190614dd3565b60206040518083038186803b158015611b4357600080fd5b505af4158015611b57573d6000803e3d6000fd5b505050506040513d601f19601f82011682018060405250611b7b91908101906142f5565b9050600073__ConvertLib____________________________63cfb519288b6040518263ffffffff167c0100000000000000000000000000000000000000000000000000000000028152600401611bd29190614dd3565b60206040518083038186803b158015611bea57600080fd5b505af4158015611bfe573d6000803e3d6000fd5b505050506040513d601f19601f82011682018060405250611c2291908101906142f5565b9050600073__ConvertLib____________________________63cfb519288a6040518263ffffffff167c0100000000000000000000000000000000000000000000000000000000028152600401611c799190614dd3565b60206040518083038186803b158015611c9157600080fd5b505af4158015611ca5573d6000803e3d6000fd5b505050506040513d601f19601f82011682018060405250611cc991908101906142f5565b9050600073__ConvertLib____________________________63cfb51928876040518263ffffffff167c0100000000000000000000000000000000000000000000000000000000028152600401611d209190614dd3565b60206040518083038186803b158015611d3857600080fd5b505af4158015611d4c573d6000803e3d6000fd5b505050506040513d601f19601f82011682018060405250611d7091908101906142f5565b905080600a60008581526020019081526020016000206005015414158015611dae575084600a60008581526020019081526020016000206006015414155b15611df6577f6f1918ce2966b92d7f20c71ac69b7aecbc5ab3cbc1622fb2d19e7b1a8cf173d5336000604051611de5929190614ba0565b60405180910390a15050505061225e565b611e008288613ed8565b1515611e49577f6f1918ce2966b92d7f20c71ac69b7aecbc5ab3cbc1622fb2d19e7b1a8cf173d5336000604051611e38929190614c54565b60405180910390a15050505061225e565b611e528461404e565b151561221f5783600960008681526020019081526020016000206000018190555082600960008681526020019081526020016000206001018190555081600960008681526020019081526020016000206002018190555073__ConvertLib____________________________63cfb519288a6040518263ffffffff167c0100000000000000000000000000000000000000000000000000000000028152600401611efc9190614dd3565b60206040518083038186803b158015611f1457600080fd5b505af4158015611f28573d6000803e3d6000fd5b505050506040513d601f19601f82011682018060405250611f4c91908101906142f5565b600960008681526020019081526020016000206003018190555073__ConvertLib____________________________63cfb51928896040518263ffffffff167c0100000000000000000000000000000000000000000000000000000000028152600401611fb99190614dd3565b60206040518083038186803b158015611fd157600080fd5b505af4158015611fe5573d6000803e3d6000fd5b505050506040513d601f19601f8201168201806040525061200991908101906142f5565b600960008681526020019081526020016000206004018190555060028714156120695760006009600086815260200190815260200160002060050160006101000a81548160ff0219169083600381111561205f57fe5b021790555061213a565b60038714156120af5760016009600086815260200190815260200160002060050160006101000a81548160ff021916908360038111156120a557fe5b0217905550612139565b60008714156120f55760026009600086815260200190815260200160002060050160006101000a81548160ff021916908360038111156120eb57fe5b0217905550612138565b60018714156121375760036009600086815260200190815260200160002060050160006101000a81548160ff0219169083600381111561213157fe5b02179055505b5b5b5b600d84908060018154018082558091505090600182039060005260206000200160009091929091909150555081600a60008581526020019081526020016000206005018190555086600a600085815260200190815260200160002060060181905550600a60008481526020019081526020016000206004018490806001815401808255809150509060018203906000526020600020016000909192909190915055507f6f1918ce2966b92d7f20c71ac69b7aecbc5ab3cbc1622fb2d19e7b1a8cf173d533600160405161220e929190614bdc565b60405180910390a15050505061225e565b7f6f1918ce2966b92d7f20c71ac69b7aecbc5ab3cbc1622fb2d19e7b1a8cf173d5336000604051612251929190614ccc565b60405180910390a1505050505b5050505050505050565b600073__ConvertLib____________________________63cfb51928876040518263ffffffff167c01000000000000000000000000000000000000000000000000000000000281526004016122bd9190614dd3565b60206040518083038186803b1580156122d557600080fd5b505af41580156122e9573d6000803e3d6000fd5b505050506040513d601f19601f8201168201806040525061230d91908101906142f5565b90506000841415612626576123228185613ed8565b15156125e65780600160008381526020019081526020016000206000018190555073__ConvertLib____________________________63cfb51928866040518263ffffffff167c01000000000000000000000000000000000000000000000000000000000281526004016123969190614dd3565b60206040518083038186803b1580156123ae57600080fd5b505af41580156123c2573d6000803e3d6000fd5b505050506040513d601f19601f820116820180604052506123e691908101906142f5565b600160008381526020019081526020016000206003018190555073__ConvertLib____________________________63cfb51928846040518263ffffffff167c01000000000000000000000000000000000000000000000000000000000281526004016124539190614dd3565b60206040518083038186803b15801561246b57600080fd5b505af415801561247f573d6000803e3d6000fd5b505050506040513d601f19601f820116820180604052506124a391908101906142f5565b600160008381526020019081526020016000206001018190555073__ConvertLib____________________________63cfb51928836040518263ffffffff167c01000000000000000000000000000000000000000000000000000000000281526004016125109190614dd3565b60206040518083038186803b15801561252857600080fd5b505af415801561253c573d6000803e3d6000fd5b505050506040513d601f19601f8201168201806040525061256091908101906142f5565b600160008381526020019081526020016000206002018190555060058190806001815401808255809150509060018203906000526020600020016000909192909190915055507f66e3bfd6d91a619b795e0f1317d04d96f36670dad4290fbd309c8c7eb5f8e4ed3360016040516125d8929190614c90565b60405180910390a150612f6d565b7f66e3bfd6d91a619b795e0f1317d04d96f36670dad4290fbd309c8c7eb5f8e4ed336000604051612618929190614d08565b60405180910390a150612f6d565b600184141561293d576126398185613ed8565b15156128fd5780600260008381526020019081526020016000206000018190555073__ConvertLib____________________________63cfb51928866040518263ffffffff167c01000000000000000000000000000000000000000000000000000000000281526004016126ad9190614dd3565b60206040518083038186803b1580156126c557600080fd5b505af41580156126d9573d6000803e3d6000fd5b505050506040513d601f19601f820116820180604052506126fd91908101906142f5565b600260008381526020019081526020016000206003018190555073__ConvertLib____________________________63cfb51928846040518263ffffffff167c010000000000000000000000000000000000000000000000000000000002815260040161276a9190614dd3565b60206040518083038186803b15801561278257600080fd5b505af4158015612796573d6000803e3d6000fd5b505050506040513d601f19601f820116820180604052506127ba91908101906142f5565b600260008381526020019081526020016000206001018190555073__ConvertLib____________________________63cfb51928836040518263ffffffff167c01000000000000000000000000000000000000000000000000000000000281526004016128279190614dd3565b60206040518083038186803b15801561283f57600080fd5b505af4158015612853573d6000803e3d6000fd5b505050506040513d601f19601f8201168201806040525061287791908101906142f5565b600260008381526020019081526020016000206002018190555060068190806001815401808255809150509060018203906000526020600020016000909192909190915055507f66e3bfd6d91a619b795e0f1317d04d96f36670dad4290fbd309c8c7eb5f8e4ed3360016040516128ef929190614c90565b60405180910390a150612f6d565b7f66e3bfd6d91a619b795e0f1317d04d96f36670dad4290fbd309c8c7eb5f8e4ed33600060405161292f929190614d08565b60405180910390a150612f6d565b6002841415612c54576129508185613ed8565b1515612c145780600360008381526020019081526020016000206000018190555073__ConvertLib____________________________63cfb51928866040518263ffffffff167c01000000000000000000000000000000000000000000000000000000000281526004016129c49190614dd3565b60206040518083038186803b1580156129dc57600080fd5b505af41580156129f0573d6000803e3d6000fd5b505050506040513d601f19601f82011682018060405250612a1491908101906142f5565b600360008381526020019081526020016000206003018190555073__ConvertLib____________________________63cfb51928846040518263ffffffff167c0100000000000000000000000000000000000000000000000000000000028152600401612a819190614dd3565b60206040518083038186803b158015612a9957600080fd5b505af4158015612aad573d6000803e3d6000fd5b505050506040513d601f19601f82011682018060405250612ad191908101906142f5565b600360008381526020019081526020016000206001018190555073__ConvertLib____________________________63cfb51928836040518263ffffffff167c0100000000000000000000000000000000000000000000000000000000028152600401612b3e9190614dd3565b60206040518083038186803b158015612b5657600080fd5b505af4158015612b6a573d6000803e3d6000fd5b505050506040513d601f19601f82011682018060405250612b8e91908101906142f5565b600360008381526020019081526020016000206002018190555060078190806001815401808255809150509060018203906000526020600020016000909192909190915055507f66e3bfd6d91a619b795e0f1317d04d96f36670dad4290fbd309c8c7eb5f8e4ed336001604051612c06929190614c90565b60405180910390a150612f6d565b7f66e3bfd6d91a619b795e0f1317d04d96f36670dad4290fbd309c8c7eb5f8e4ed336000604051612c46929190614d08565b60405180910390a150612f6d565b6003841415612f6b57612c678185613ed8565b1515612f2b5780600460008381526020019081526020016000206000018190555073__ConvertLib____________________________63cfb51928866040518263ffffffff167c0100000000000000000000000000000000000000000000000000000000028152600401612cdb9190614dd3565b60206040518083038186803b158015612cf357600080fd5b505af4158015612d07573d6000803e3d6000fd5b505050506040513d601f19601f82011682018060405250612d2b91908101906142f5565b600460008381526020019081526020016000206003018190555073__ConvertLib____________________________63cfb51928846040518263ffffffff167c0100000000000000000000000000000000000000000000000000000000028152600401612d989190614dd3565b60206040518083038186803b158015612db057600080fd5b505af4158015612dc4573d6000803e3d6000fd5b505050506040513d601f19601f82011682018060405250612de891908101906142f5565b600460008381526020019081526020016000206001018190555073__ConvertLib____________________________63cfb51928836040518263ffffffff167c0100000000000000000000000000000000000000000000000000000000028152600401612e559190614dd3565b60206040518083038186803b158015612e6d57600080fd5b505af4158015612e81573d6000803e3d6000fd5b505050506040513d601f19601f82011682018060405250612ea591908101906142f5565b600460008381526020019081526020016000206002018190555060088190806001815401808255809150509060018203906000526020600020016000909192909190915055507f66e3bfd6d91a619b795e0f1317d04d96f36670dad4290fbd309c8c7eb5f8e4ed336001604051612f1d929190614c90565b60405180910390a150612f6d565b7f66e3bfd6d91a619b795e0f1317d04d96f36670dad4290fbd309c8c7eb5f8e4ed336000604051612f5d929190614d08565b60405180910390a150612f6d565b505b5050505050565b60006060600073__ConvertLib____________________________63cfb51928866040518263ffffffff167c0100000000000000000000000000000000000000000000000000000000028152600401612fcd9190614dd3565b60206040518083038186803b158015612fe557600080fd5b505af4158015612ff9573d6000803e3d6000fd5b505050506040513d601f19601f8201168201806040525061301d91908101906142f5565b90506130298185613ed8565b1561337f57600084141561310157600173__ConvertLib____________________________639201de5560016000858152602001908152602001600020600301546040518263ffffffff167c01000000000000000000000000000000000000000000000000000000000281526004016130a29190614d74565b60006040518083038186803b1580156130ba57600080fd5b505af41580156130ce573d6000803e3d6000fd5b505050506040513d6000823e3d601f19601f820116820180604052506130f7919081019061439b565b925092505061339e565b60018414156131d457600173__ConvertLib____________________________639201de5560026000858152602001908152602001600020600301546040518263ffffffff167c01000000000000000000000000000000000000000000000000000000000281526004016131759190614d74565b60006040518083038186803b15801561318d57600080fd5b505af41580156131a1573d6000803e3d6000fd5b505050506040513d6000823e3d601f19601f820116820180604052506131ca919081019061439b565b925092505061339e565b60028414156132a757600173__ConvertLib____________________________639201de5560036000858152602001908152602001600020600301546040518263ffffffff167c01000000000000000000000000000000000000000000000000000000000281526004016132489190614d74565b60006040518083038186803b15801561326057600080fd5b505af4158015613274573d6000803e3d6000fd5b505050506040513d6000823e3d601f19601f8201168201806040525061329d919081019061439b565b925092505061339e565b600384141561337a57600173__ConvertLib____________________________639201de5560046000858152602001908152602001600020600301546040518263ffffffff167c010000000000000000000000000000000000000000000000000000000002815260040161331b9190614d74565b60006040518083038186803b15801561333357600080fd5b505af4158015613347573d6000803e3d6000fd5b505050506040513d6000823e3d601f19601f82011682018060405250613370919081019061439b565b925092505061339e565b61339c565b60006020604051908101604052806000815250925092505061339e565b505b9250929050565b60608060608060008514156135715773__ConvertLib____________________________639201de5560016000898152602001908152602001600020600101546040518263ffffffff167c010000000000000000000000000000000000000000000000000000000002815260040161341d9190614d74565b60006040518083038186803b15801561343557600080fd5b505af4158015613449573d6000803e3d6000fd5b505050506040513d6000823e3d601f19601f82011682018060405250613472919081019061439b565b925073__ConvertLib____________________________639201de5560016000898152602001908152602001600020600201546040518263ffffffff167c01000000000000000000000000000000000000000000000000000000000281526004016134dd9190614d74565b60006040518083038186803b1580156134f557600080fd5b505af4158015613509573d6000803e3d6000fd5b505050506040513d6000823e3d601f19601f82011682018060405250613532919081019061439b565b91506040805190810160405280600981526020017fe6b688e8b4b9e8808500000000000000000000000000000000000000000000008152509050613ac2565b60018514156137375773__ConvertLib____________________________639201de5560026000898152602001908152602001600020600101546040518263ffffffff167c01000000000000000000000000000000000000000000000000000000000281526004016135e39190614d74565b60006040518083038186803b1580156135fb57600080fd5b505af415801561360f573d6000803e3d6000fd5b505050506040513d6000823e3d601f19601f82011682018060405250613638919081019061439b565b925073__ConvertLib____________________________639201de5560026000898152602001908152602001600020600201546040518263ffffffff167c01000000000000000000000000000000000000000000000000000000000281526004016136a39190614d74565b60006040518083038186803b1580156136bb57600080fd5b505af41580156136cf573d6000803e3d6000fd5b505050506040513d6000823e3d601f19601f820116820180604052506136f8919081019061439b565b91506040805190810160405280600981526020017fe7949fe4baa7e5958600000000000000000000000000000000000000000000008152509050613ac1565b60028514156138fd5773__ConvertLib____________________________639201de5560036000898152602001908152602001600020600101546040518263ffffffff167c01000000000000000000000000000000000000000000000000000000000281526004016137a99190614d74565b60006040518083038186803b1580156137c157600080fd5b505af41580156137d5573d6000803e3d6000fd5b505050506040513d6000823e3d601f19601f820116820180604052506137fe919081019061439b565b925073__ConvertLib____________________________639201de5560036000898152602001908152602001600020600201546040518263ffffffff167c01000000000000000000000000000000000000000000000000000000000281526004016138699190614d74565b60006040518083038186803b15801561388157600080fd5b505af4158015613895573d6000803e3d6000fd5b505050506040513d6000823e3d601f19601f820116820180604052506138be919081019061439b565b91506040805190810160405280600981526020017fe7bb8fe99480e5958600000000000000000000000000000000000000000000008152509050613ac0565b6003851415613abf5773__ConvertLib____________________________639201de5560046000898152602001908152602001600020600101546040518263ffffffff167c010000000000000000000000000000000000000000000000000000000002815260040161396f9190614d74565b60006040518083038186803b15801561398757600080fd5b505af415801561399b573d6000803e3d6000fd5b505050506040513d6000823e3d601f19601f820116820180604052506139c4919081019061439b565b925073__ConvertLib____________________________639201de5560046000898152602001908152602001600020600201546040518263ffffffff167c0100000000000000000000000000000000000000000000000000000000028152600401613a2f9190614d74565b60006040518083038186803b158015613a4757600080fd5b505af4158015613a5b573d6000803e3d6000fd5b505050506040513d6000823e3d601f19601f82011682018060405250613a84919081019061439b565b91506040805190810160405280600981526020017fe99bb6e594aee59586000000000000000000000000000000000000000000000081525090505b5b5b5b606081848460405160200180807f7b2754797065273a27000000000000000000000000000000000000000000000081525060090184805190602001908083835b602083101515613b275780518252602082019150602081019050602083039250613b02565b6001836020036101000a038019825116818451168082178552505050505050905001807f272c274e616d65273a2700000000000000000000000000000000000000000000815250600a0183805190602001908083835b602083101515613ba25780518252602082019150602081019050602083039250613b7d565b6001836020036101000a038019825116818451168082178552505050505050905001807f272c27496e666f273a2700000000000000000000000000000000000000000000815250600a0182805190602001908083835b602083101515613c1d5780518252602082019150602081019050602083039250613bf8565b6001836020036101000a038019825116818451168082178552505050505050905001807f277d000000000000000000000000000000000000000000000000000000000000815250600201935050505060405160208183030381529060405290508094505050505092915050565b600073__ConvertLib____________________________63cfb51928836040518263ffffffff167c0100000000000000000000000000000000000000000000000000000000028152600401613cdf9190614dd3565b60206040518083038186803b158015613cf757600080fd5b505af4158015613d0b573d6000803e3d6000fd5b505050506040513d601f19601f82011682018060405250613d2f91908101906142f5565b9050613d3a81613dce565b15613d8f576060613d4a83610ea2565b90507f1cdaccc8c90913134fd8f74ceaac895a089b8c4a3c2da93bd2c569117319433d33600183604051613d8093929190614aae565b60405180910390a15050613dcb565b7f1cdaccc8c90913134fd8f74ceaac895a089b8c4a3c2da93bd2c569117319433d336000604051613dc1929190614b28565b60405180910390a1505b50565b600080600090505b600e80549050811015613e1b5782600e82815481101515613df357fe5b90600052602060002001541415613e0e576001915050613e21565b8080600101915050613dd6565b50600090505b919050565b600080600080600090505b8451811015613ec5576000915060008090505b600e80549050811015613e9f57600e81815481101515613e6057fe5b90600052602060002001548683815181101515613e7957fe5b906020019060200201511415613e925760019250613e9f565b8080600101915050613e44565b50811515613eb857600060018201935093505050613ed3565b8080600101915050613e31565b506001600080905092509250505b915091565b600080821415613f375760008090505b600580549050811015613f2d5783600582815481101515613f0557fe5b90600052602060002001541415613f20576001915050614048565b8080600101915050613ee8565b5060009050614048565b6001821415613f915760008090505b600680549050811015613f8b5783600682815481101515613f6357fe5b90600052602060002001541415613f7e576001915050614048565b8080600101915050613f46565b50614043565b6002821415613feb5760008090505b600780549050811015613fe55783600782815481101515613fbd57fe5b90600052602060002001541415613fd8576001915050614048565b8080600101915050613fa0565b50614042565b60038214156140415760008090505b60088054905081101561403f578360088281548110151561401757fe5b90600052602060002001541415614032576001915050614048565b8080600101915050613ffa565b505b5b5b600090505b92915050565b600080600090505b600d8054905081101561409b5782600d8281548110151561407357fe5b9060005260206000200154141561408e5760019150506140a1565b8080600101915050614056565b50600090505b919050565b8280548282559060005260206000209081019282156140e2579160200282015b828111156140e15782518255916020019190600101906140c6565b5b5090506140ef91906140f3565b5090565b61411591905b808211156141115760008160009055506001016140f9565b5090565b90565b600082601f830112151561412b57600080fd5b813561413e61413982614e52565b614e25565b9150818183526020840193506020810190508360005b83811015614184578135860161416a88826141b6565b845260208401935060208301925050600181019050614154565b5050505092915050565b600061419a8235614f28565b905092915050565b60006141ae8251614f28565b905092915050565b600082601f83011215156141c957600080fd5b81356141dc6141d782614e7a565b614e25565b915080825260208301602083018583830111156141f857600080fd5b614203838284614f72565b50505092915050565b600082601f830112151561421f57600080fd5b813561423261422d82614ea6565b614e25565b9150808252602083016020830185838301111561424e57600080fd5b614259838284614f72565b50505092915050565b600082601f830112151561427557600080fd5b815161428861428382614ea6565b614e25565b915080825260208301602083018583830111156142a457600080fd5b6142af838284614f81565b50505092915050565b60006142c48235614f32565b905092915050565b6000602082840312156142de57600080fd5b60006142ec8482850161418e565b91505092915050565b60006020828403121561430757600080fd5b6000614315848285016141a2565b91505092915050565b6000806040838503121561433157600080fd5b600061433f8582860161418e565b9250506020614350858286016142b8565b9150509250929050565b60006020828403121561436c57600080fd5b600082013567ffffffffffffffff81111561438657600080fd5b6143928482850161420c565b91505092915050565b6000602082840312156143ad57600080fd5b600082015167ffffffffffffffff8111156143c757600080fd5b6143d384828501614262565b91505092915050565b600080600080600060a086880312156143f457600080fd5b600086013567ffffffffffffffff81111561440e57600080fd5b61441a8882890161420c565b955050602086013567ffffffffffffffff81111561443757600080fd5b6144438882890161420c565b945050604086013567ffffffffffffffff81111561446057600080fd5b61446c8882890161420c565b935050606086013567ffffffffffffffff81111561448957600080fd5b61449588828901614118565b925050608086013567ffffffffffffffff8111156144b257600080fd5b6144be8882890161420c565b9150509295509295909350565b600080600080600080600080610100898b0312156144e857600080fd5b600089013567ffffffffffffffff81111561450257600080fd5b61450e8b828c0161420c565b985050602089013567ffffffffffffffff81111561452b57600080fd5b6145378b828c0161420c565b975050604089013567ffffffffffffffff81111561455457600080fd5b6145608b828c0161420c565b965050606089013567ffffffffffffffff81111561457d57600080fd5b6145898b828c0161420c565b955050608089013567ffffffffffffffff8111156145a657600080fd5b6145b28b828c0161420c565b94505060a06145c38b828c016142b8565b93505060c089013567ffffffffffffffff8111156145e057600080fd5b6145ec8b828c0161420c565b92505060e06145fd8b828c016142b8565b9150509295985092959890939650565b600080600080600060a0868803121561462557600080fd5b600086013567ffffffffffffffff81111561463f57600080fd5b61464b8882890161420c565b955050602086013567ffffffffffffffff81111561466857600080fd5b6146748882890161420c565b9450506040614685888289016142b8565b935050606086013567ffffffffffffffff8111156146a257600080fd5b6146ae8882890161420c565b925050608086013567ffffffffffffffff8111156146cb57600080fd5b6146d78882890161420c565b9150509295509295909350565b600080604083850312156146f757600080fd5b600083013567ffffffffffffffff81111561471157600080fd5b61471d8582860161420c565b925050602061472e858286016142b8565b9150509250929050565b61474181614f3c565b82525050565b61475081614ee8565b82525050565b61475f81614ef4565b82525050565b600061477082614edd565b808452614784816020860160208601614f81565b61478d81614fb4565b602085010191505092915050565b60006147a682614edd565b8084526147ba816020860160208601614f81565b6147c381614fb4565b602085010191505092915050565b60006147dc82614ed2565b8084526147f0816020860160208601614f81565b6147f981614fb4565b602085010191505092915050565b6000602d82527fe8afa5e4bbb6e59586e59381e5b7b2e7bb8fe6b7bbe58aa0efbc8ce8afb7e7a160208301527faee8aea4e5908ee6938de4bd9c000000000000000000000000000000000000006040830152606082019050919050565b6000600f82527fe59586e59381e4b88de5ad98e59ca800000000000000000000000000000000006020830152604082019050919050565b6000601282527fe5889be5bbbae59586e59381e68890e58a9f00000000000000000000000000006020830152604082019050919050565b6000601282527fe6b2a1e69c89e6938de4bd9ce69d83e9999000000000000000000000000000006020830152604082019050919050565b6000601282527fe587bae594aee59586e59381e68890e58a9f00000000000000000000000000006020830152604082019050919050565b6000602782527fe69c89e99bb6e4bbb6e4b88de5ad98e59ca8efbc8ce8afb7e7a1aee8aea4e59060208301527f8ee6938de4bd9c000000000000000000000000000000000000000000000000006040830152606082019050919050565b6000600f82527fe4b9b0e5aeb6e4b88de5ad98e59ca800000000000000000000000000000000006020830152604082019050919050565b6000600c82527fe6b3a8e5868ce68890e58a9f00000000000000000000000000000000000000006020830152604082019050919050565b6000602a82527fe8afa5e4baa4e69893e58fb7e5b7b2e4bdbfe794a8efbc8ce8afb7e7a1aee8ae60208301527fa4e5908ee6938de4bd9c000000000000000000000000000000000000000000006040830152606082019050919050565b6000601582527fe8afa5e8b4a6e688b7e5b7b2e7bb8fe6b3a8e5868c00000000000000000000006020830152604082019050919050565b614aa881614f1e565b82525050565b6000606082019050614ac36000830186614738565b614ad06020830185614747565b8181036040830152614ae28184614765565b9050949350505050565b6000606082019050614b016000830185614738565b614b0e6020830184614747565b8181036040830152614b1f81614807565b90509392505050565b6000606082019050614b3d6000830185614738565b614b4a6020830184614747565b8181036040830152614b5b81614864565b90509392505050565b6000606082019050614b796000830185614738565b614b866020830184614747565b8181036040830152614b978161489b565b90509392505050565b6000606082019050614bb56000830185614738565b614bc26020830184614747565b8181036040830152614bd3816148d2565b90509392505050565b6000606082019050614bf16000830185614738565b614bfe6020830184614747565b8181036040830152614c0f81614909565b90509392505050565b6000606082019050614c2d6000830185614738565b614c3a6020830184614747565b8181036040830152614c4b81614940565b90509392505050565b6000606082019050614c696000830185614738565b614c766020830184614747565b8181036040830152614c878161499d565b90509392505050565b6000606082019050614ca56000830185614738565b614cb26020830184614747565b8181036040830152614cc3816149d4565b90509392505050565b6000606082019050614ce16000830185614738565b614cee6020830184614747565b8181036040830152614cff81614a0b565b90509392505050565b6000606082019050614d1d6000830185614738565b614d2a6020830184614747565b8181036040830152614d3b81614a68565b90509392505050565b6000604082019050614d596000830185614747565b8181036020830152614d6b8184614765565b90509392505050565b6000602082019050614d896000830184614756565b92915050565b60006020820190508181036000830152614da981846147d1565b905092915050565b60006020820190508181036000830152614dcb8184614765565b905092915050565b60006020820190508181036000830152614ded818461479b565b905092915050565b60006040820190508181036000830152614e0f8185614765565b9050614e1e6020830184614a9f565b9392505050565b6000604051905081810181811067ffffffffffffffff82111715614e4857600080fd5b8060405250919050565b600067ffffffffffffffff821115614e6957600080fd5b602082029050602081019050919050565b600067ffffffffffffffff821115614e9157600080fd5b601f19601f8301169050602081019050919050565b600067ffffffffffffffff821115614ebd57600080fd5b601f19601f8301169050602081019050919050565b600081519050919050565b600081519050919050565b60008115159050919050565b6000819050919050565b600073ffffffffffffffffffffffffffffffffffffffff82169050919050565b6000819050919050565b6000819050919050565b6000819050919050565b6000614f4782614f4e565b9050919050565b6000614f5982614f60565b9050919050565b6000614f6b82614efe565b9050919050565b82818337600083830152505050565b60005b83811015614f9f578082015181840152602081019050614f84565b83811115614fae576000848401525b50505050565b6000601f19601f830116905091905056fea265627a7a723058201198ac795a472b4b6968c0d0fb8b870b6bdfc876f21f35911f65f1bdb31336fa6c6578706572696d656e74616cf50037",
  "source": "pragma solidity >=0.4.22 <0.6.0;\npragma experimental ABIEncoderV2;\n\nimport \"./ConvertLib.sol\";\n\ncontract LifeLine {\n    address owner;\n    struct Customer{\n        bytes32 owner;\n        bytes32 name;\n        bytes32 info;\n        bytes32 password;\n    }\n    struct Producer{\n        bytes32 owner;\n        bytes32 name;\n        bytes32 info;\n        bytes32 password;\n    }\n    struct Dealer{\n        bytes32 owner;\n        bytes32 name;\n        bytes32 info;\n        bytes32 password;\n    }\n    struct Retailer{\n        bytes32 owner;\n        bytes32 name;\n        bytes32 info;\n        bytes32 password;\n    }\n\n    mapping (bytes32 => Customer) customer;\n    mapping (bytes32 => Producer) producer;\n    mapping (bytes32 => Dealer) dealer;\n    mapping (bytes32 => Retailer) retailer;\n\n    bytes32[] customers; \n    bytes32[] producers; \n    bytes32[] dealers; \n    bytes32[] retailers;\n\n    enum Actor{ Dealer, Retailer, Customer, Producer }\n\n    struct Sale {\n        bytes32 saleId;\n        bytes32 goodId;\n        bytes32 buyer;             //\n        bytes32 saleTime;            //\n        bytes32 salePrice;           //\n        Actor actor;                //\n    }   \n    struct Good { \n        bytes32 goodId;\n        bytes32 goodName;\n        bytes32 producer;\n        bytes32 produceTime;\n        bytes32[] sales;\n        // uint state;                     //012\n        // uint price;\n        bytes32 owner;\n        uint ownertype;\n        bytes32[] components;\n    }\n\n    mapping (bytes32 => Sale) sale;\n    mapping (bytes32 => Good) good;\n\n    uint256 saleNextId;\n    uint256 goodNextId;\n    \n    bytes32[] sales;\n    bytes32[] goods;\n\n    constructor() public {\n        owner = msg.sender;\n        saleNextId = 0;\n        goodNextId = 0;\n    }\n\n    event NewUser(address sender,bool isSuccess,string message); \n    function newUser(string memory _userAddrStr, string memory _password, uint _type, string memory _name, string memory _info) public payable{\n        bytes32 _userAddr = ConvertLib.stringToBytes32(_userAddrStr);\n        if(_type == 0) {    //customer\n            if(!isUserAlreadyRegister(_userAddr, _type)) {\n                customer[_userAddr].owner = _userAddr; \n                customer[_userAddr].password = ConvertLib.stringToBytes32(_password); \n                customer[_userAddr].name = ConvertLib.stringToBytes32(_name);\n                customer[_userAddr].info = ConvertLib.stringToBytes32(_info);\n                customers.push(_userAddr);\n                emit NewUser(msg.sender, true, \"\");\n                return;\n            }else {\n                emit NewUser(msg.sender, false, \"\"); \n                return;\n            } \n        } else if (_type == 1) {    //producer\n            if(!isUserAlreadyRegister(_userAddr, _type)) {\n                producer[_userAddr].owner = _userAddr; \n                producer[_userAddr].password = ConvertLib.stringToBytes32(_password); \n                producer[_userAddr].name = ConvertLib.stringToBytes32(_name);\n                producer[_userAddr].info = ConvertLib.stringToBytes32(_info);\n                producers.push(_userAddr);\n                emit NewUser(msg.sender, true, \"\");\n                return;\n            }else {\n                emit NewUser(msg.sender, false, \"\"); \n                return;\n            } \n        } else if (_type == 2) {    //dealer\n            if(!isUserAlreadyRegister(_userAddr, _type)) {\n                dealer[_userAddr].owner = _userAddr; \n                dealer[_userAddr].password = ConvertLib.stringToBytes32(_password); \n                dealer[_userAddr].name = ConvertLib.stringToBytes32(_name);\n                dealer[_userAddr].info = ConvertLib.stringToBytes32(_info);\n                dealers.push(_userAddr);\n                emit NewUser(msg.sender, true, \"\");\n                return;\n            }else {\n                emit NewUser(msg.sender, false, \"\"); \n                return;\n            } \n        } else if (_type == 3) {    //retailer\n            if(!isUserAlreadyRegister(_userAddr, _type)) {\n                retailer[_userAddr].owner = _userAddr; \n                retailer[_userAddr].password = ConvertLib.stringToBytes32(_password); \n                retailer[_userAddr].name = ConvertLib.stringToBytes32(_name);\n                retailer[_userAddr].info = ConvertLib.stringToBytes32(_info);\n                retailers.push(_userAddr);\n                emit NewUser(msg.sender, true, \"\");\n                return;\n            }else {\n                emit NewUser(msg.sender, false, \"\"); \n                return;\n            } \n        }    \n    }\n\n    function isUserAlreadyRegister(bytes32 _addr, uint _type) internal view returns(bool) {\n        if(_type == 0) {\n            for(uint i = 0; i < customers.length; i++) {\n                if(customers[i] == _addr) {\n                    return true;\n                }\n            }\n            return false;\n        } else if(_type == 1){\n            for(uint i = 0; i < producers.length; i++) {\n                if(producers[i] == _addr) {\n                    return true;\n                }\n            }\n        } else if(_type == 2){\n            for(uint i = 0; i < dealers.length; i++) {\n                if(dealers[i] == _addr) {\n                    return true;\n                }\n            }\n        } else if(_type == 3){\n            for(uint i = 0; i < retailers.length; i++) {\n                if(retailers[i] == _addr) {\n                    return true;\n                }\n            }\n        }\n        return false;\n    }\n\n    function getUserPwd(string memory _addrStr, uint _type) public view returns(bool, string memory) {\n        bytes32 _addr = ConvertLib.stringToBytes32(_addrStr);\n        if(isUserAlreadyRegister(_addr, _type)) {\n            if(_type == 0) {\n                return (true, ConvertLib.bytes32ToString(customer[_addr].password));\n            } else if (_type == 1) {\n                return (true, ConvertLib.bytes32ToString(producer[_addr].password));\n            } else if (_type == 2) {\n                return (true, ConvertLib.bytes32ToString(dealer[_addr].password));\n            } else if (_type == 3) {\n                return (true, ConvertLib.bytes32ToString(retailer[_addr].password));\n            }\n        } else {\n            return (false, \"\");\n        }\n    }\n\n    event ProduceGood(address sender,bool isSuccess,string message);\n    function produceGood(string memory _id, string memory _name, string memory _src, string[] memory _CompStr, string memory _produceT) public {\n        bytes32 tmpid = ConvertLib.stringToBytes32(_id);\n        bytes32[] memory _Components = new bytes32[](_CompStr.length);\n        for(uint i = 0; i < _CompStr.length; i++) {\n            _Components[i] = ConvertLib.stringToBytes32(_CompStr[i]);\n        }\n        if(!isGoodAlreadyExist(tmpid)) {\n            bool res1;\n            uint res2;\n            (res1, res2) = isComponentsAllExist(_Components);\n            if(res1) {\n                good[tmpid].goodId = tmpid;\n                good[tmpid].goodName = ConvertLib.stringToBytes32(_name);\n                good[tmpid].ownertype = 1;\n                good[tmpid].owner = ConvertLib.stringToBytes32(_src);\n                good[tmpid].producer = ConvertLib.stringToBytes32(_src);\n                good[tmpid].components = _Components;\n                good[tmpid].produceTime = ConvertLib.stringToBytes32(_produceT);\n                goods.push(tmpid);\n                emit ProduceGood(msg.sender, true, \"\"); \n            } else {\n                emit ProduceGood(msg.sender, false, \"\"); \n                return;\n            }\n            \n        } else {\n            emit ProduceGood(msg.sender, false, \"\"); \n            return;\n        }\n    }\n\n    function isGoodAlreadyExist(bytes32 _id) internal view returns(bool) {\n        for(uint i = 0; i < goods.length; i++) {\n            if(goods[i] == _id) {\n                return true;\n            }\n        }\n        return false;\n    }\n\n    function isSellAlreadyExist(bytes32 _id) internal view returns(bool) {\n        for(uint i = 0; i < sales.length; i++) {\n            if(sales[i] == _id) {\n                return true;\n            }\n        }\n        return false;\n    }\n\n    function isComponentsAllExist(bytes32[] memory _ids) internal view returns(bool, uint) {\n        bool flag;\n        for(uint i = 0; i < _ids.length; i++) {\n            flag = false;\n            for(uint j = 0; j < goods.length; j++) {\n                if(_ids[i] == goods[j]) {\n                    flag = true;\n                    break;\n                }\n            }\n            if(!flag) {\n                return (false, i+1);\n            }\n        }\n        return (true, 0);\n    }\n    \n    event SellGood(address sender,bool isSuccess,string message);\n    function sellGood(string memory _gid, string memory _id, string memory _brs, string memory _time, string memory _p, uint _t, string memory _srs, uint _st) public payable{\n        bytes32 tmpid = ConvertLib.stringToBytes32(_id);\n        bytes32 goodid = ConvertLib.stringToBytes32(_gid);\n        bytes32 _br = ConvertLib.stringToBytes32(_brs);\n        bytes32 _sr = ConvertLib.stringToBytes32(_srs);\n        if(good[goodid].owner != _sr && good[goodid].ownertype != _st) {\n            emit SellGood(msg.sender, false, \"\"); \n            return;\n        } else if(!isUserAlreadyRegister(_br, _t)) {\n            emit SellGood(msg.sender, false, \"\"); \n            return;\n        } else if(!isSellAlreadyExist(tmpid)) {\n            sale[tmpid].saleId = tmpid;\n            sale[tmpid].goodId = goodid;\n            sale[tmpid].buyer = _br;\n            sale[tmpid].saleTime = ConvertLib.stringToBytes32(_time);\n            sale[tmpid].salePrice = ConvertLib.stringToBytes32(_p);\n            if(_t == 2) {\n                sale[tmpid].actor = Actor.Dealer;\n            } else if(_t == 3) {\n                sale[tmpid].actor = Actor.Retailer;\n            } else if(_t == 0) {\n                sale[tmpid].actor = Actor.Customer;\n            } else if(_t == 1) {\n                sale[tmpid].actor = Actor.Producer;\n            }\n            sales.push(tmpid);\n            good[goodid].owner = _br;\n            good[goodid].ownertype = _t;\n            good[goodid].sales.push(tmpid);\n            emit SellGood(msg.sender, true, \"\");\n            return;\n        } else {\n            emit SellGood(msg.sender, false, \"\"); \n            return;\n        }\n    }\n\n    function debugGood(string memory _id) public view returns (string memory) {\n        bytes32 id = ConvertLib.stringToBytes32(_id);\n        if(isGoodAlreadyExist(id)) {\n            string memory goodName = ConvertLib.bytes32ToString(good[id].goodName);\n            string memory srcStr;\n            srcStr = queryUser(good[id].producer, 1);\n            bytes32[] memory goodSales = good[id].sales;\n            bytes32[] memory goodComponents = good[id].components;\n            uint[] memory buyerType = new uint[](goodSales.length);\n            string[] memory goodSalesStr = new string[](goodSales.length);\n            string[] memory goodComponentsStr = new string[](goodComponents.length);\n            for(uint i = 0; i < goodSales.length; i++) {\n                (goodSalesStr[i], buyerType[i]) = querySale(goodSales[i]);\n            }\n            for(uint i = 0; i < goodComponents.length; i++) {\n                goodComponentsStr[i] = ConvertLib.bytes32ToString(goodComponents[i]);\n            }\n            string memory produceT = ConvertLib.bytes32ToString(good[id].produceTime);\n            string memory res = string(abi.encodePacked(\"{'ID':'\",_id,\"','Name':'\",goodName,\"','ProduceTime':'\",produceT,\"','Producer':[\",srcStr,\"],'Sales':[\"));\n            for(uint i = 0; i < goodSales.length; i++) {\n                if(i != 0) {\n                    res = string(abi.encodePacked(res, \",\"));\n                }\n                res = string(abi.encodePacked(res, goodSalesStr[i]));\n            }\n            res = string(abi.encodePacked(res, \"],'Compenents':'\"));\n            for(uint i = 0; i < goodComponents.length; i++) {\n                if(i != 0) {\n                    res = string(abi.encodePacked(res, \"/\"));\n                }\n                res = string(abi.encodePacked(res, goodComponentsStr[i]));\n            }\n            res = string(abi.encodePacked(res, \"'}\"));\n            return res;\n        } else {\n            return \" \";\n        }\n    }\n\n\n    event QueryGood(address sender,bool isSuccess,string message);\n    function queryGood(string memory _id) public {\n        bytes32 id = ConvertLib.stringToBytes32(_id);\n        if(isGoodAlreadyExist(id)) {\n            string memory res = debugGood(_id);\n            emit QueryGood(msg.sender, true, res); \n            return;\n        } else {\n            emit QueryGood(msg.sender, false, \"\"); \n            return;\n        }\n    }\n\n    function queryUser(bytes32 _addr, uint _type) public view returns (string memory) {\n        string memory name;\n        string memory info;\n        string memory utype;\n        if(_type == 0) {\n            name = ConvertLib.bytes32ToString(customer[_addr].name);\n            info = ConvertLib.bytes32ToString(customer[_addr].info);\n            utype = \"\";\n        } else if(_type == 1) {\n            name = ConvertLib.bytes32ToString(producer[_addr].name);\n            info = ConvertLib.bytes32ToString(producer[_addr].info);\n            utype = \"\";\n        } else if(_type == 2) {\n            name = ConvertLib.bytes32ToString(dealer[_addr].name);\n            info = ConvertLib.bytes32ToString(dealer[_addr].info);\n            utype = \"\";\n        } else if(_type == 3) {\n            name = ConvertLib.bytes32ToString(retailer[_addr].name);\n            info = ConvertLib.bytes32ToString(retailer[_addr].info);\n            utype = \"\";\n        }\n        string memory s = string(abi.encodePacked(\"{'Type':'\",utype,\"','Name':'\",name,\"','Info':'\",info,\"'}\"));\n        return s;\n    }\n\n    function querySale(bytes32 _id) public view returns (string memory, uint) {\n        bytes32 buyer;\n        string memory time;\n        string memory price;\n        string memory utype;\n        uint s2;\n        Actor a = sale[_id].actor;\n        buyer = sale[_id].buyer;\n        time = ConvertLib.bytes32ToString(sale[_id].saleTime);\n        price = ConvertLib.bytes32ToString(sale[_id].salePrice);\n        if(a == Actor.Dealer) {\n            utype = \"\";\n            s2 = 2;\n        } else if(a == Actor.Retailer) {\n            utype = \"\";\n            s2 = 3;\n        } else if(a == Actor.Customer) {\n            utype = \"\";\n            s2 = 0;\n        } else if(a == Actor.Producer) {\n            utype = \"\";\n            s2 = 0;\n        } \n        string memory buyerStr = ConvertLib.bytes32ToString(buyer);\n        string memory s1 = string(abi.encodePacked(\"{'BuyerType':'\",utype,\"','Buyer':'\",buyerStr,\"','Time':'\",time,\"','Price':'\",price,\"'}\"));\n        return (s1, s2);\n    }\n}",
  "sourcePath": "/Users/elliot/Documents//webpack/contracts/LifeLine.sol",
  "compiler": {
    "name": "solc",
    "version": "0.5.0+commit.1d4f565a.Emscripten.clang"
  },
  "schemaVersion": "3.0.1",
  "updatedAt": "2019-01-17T17:27:14.948Z",
  "devdoc": {
    "methods": {}
  },
  "userdoc": {
    "methods": {}
  }
}